:100000000000022091010000BD010000BD010000C0
:10001000BD010000BD010000BD010000BD010000E8
:10002000BD010000BD010000BD010000BD010000D8
:10003000BD010000BC010000BD010000BD010000C9
:10004000BD010000BD010000BD010000BD010000B8
:10005000BD010000BD010000BD010000BD010000A8
:10006000BD010000BD010000BD010000BD01000098
:10007000BD010000BD010000BD010000BD01000088
:10008000BD010000BD010000BD010000BD01000078
:10009000BD010000BD010000BD010000BD01000068
:1000A000BD010000BD010000BD010000BD01000058
:1000B000BD010000BD010000BD010000BD01000048
:1000C000BD010000BD010000BD010000BD01000038
:1000D000BD010000BD010000BD01000010B5054CD0
:1000E000237833B9044B13B10448AFF300800123E4
:1000F000237010BD3C0100200000000028260000F5
:1001000008B5034B1BB103490348AFF3008008BD9A
:10011000000000004001002028260000154B002BA5
:1001200008BF134B9D46A3F5803A00218B460F462E
:100130001348144A121A02F02DF80F4B002B00D06E
:1001400098470E4B002B00D0984700200021040058
:100150000D000D48002802D00C48AFF3008001F0DC
:10016000F5FF2000290001F053FF01F0DBFF00BF85
:100170000000080000000220000000000000000055
:100180003C010020DC010020000000000000000015
:10019000064880470649074A074B9A42BEBF51F8B6
:1001A000040B42F8040BF8E7FFF7B8FF3503000033
:1001B00034260000000000203C010020FEE700BFC4
:1001C00080B400AF034BDB6C1B0EDBB21846BD46A0
:1001D00080BC7047B081E00F80B582B000AF00F006
:1001E0001FF87860074B5B6803F00F037A6822FA08
:1001F00003F37B60044A7B6813607B68184608370A
:10020000BD4680BD00800C400800002080B400AFD7
:10021000024B1846BD4680BC704700BF006CDC0234
:1002200080B582B000AF334BDB6A03F47053B3F593
:10023000805F0AD0B3F5005F03D0B3F5006F08D03C
:100240000BE02D4B1B687B6047E04FF400437B6065
:1002500043E02A4B1B687B603FE0264BDB6803F4DE
:10026000E063B3F5007F1BD0B3F5007F05D8002B0A
:1002700024D0B3F5807F16D02BE0B3F5806F09D082
:10028000B3F5A06F03D0B3F5407F06D021E01C4B3F
:100290007B6021E01B4B7B601EE01B4B7B601BE007
:1002A0001A4B7B6018E0FFF78BFF0346122B02D935
:1002B000174B7B6010E0174B7B600DE0FFF780FF72
:1002C0000346122B02D9144B7B6005E0134B7B6075
:1002D00002E000237B6000BF00BF064B1B689B0B46
:1002E00003F0070301337A68B2FBF3F318460837CB
:1002F000BD4680BD00800C400400002000000020AE
:10030000003FAB01406F4001809FD500C0D8A700DF
:1003100040B56400C0CF6A00804F120040420F0019
:1003200080B400AF024B1B681846BD4680BC7047C6
:100330000000002080B400AF034B044A9A6000BF65
:10034000BD4680BC704700BF00ED00E0000000002B
:1003500080B400AF4FF400431846BD4680BC7047E0
:1003600080B400AF4FF47A731846BD4680BC704726
:1003700080B400AF024B1B681846BD4680BC704776
:100380000400002080B483B000AF0346FB71FB790A
:10039000002B03D0054B01221A6602E0034B00221A
:1003A0001A6600BF0C37BD4680BC704700A00840ED
:1003B00080B483B000AF786000BF054B5A6E7B6895
:1003C0001340002BF9D100BF0C37BD4680BC7047ED
:1003D00000A0084080B483B000AF7860054B9A6AF3
:1003E0007B68DB43034913408B6200BF0C37BD467B
:1003F00080BC704700A0084080B500AF00222849AB
:10040000002001F053FA00222549012001F04EFAA4
:1004100000222349022001F049FA0022204903204A
:1004200001F044FA00221E49042001F03FFA0022A4
:100430001B49052001F03AFA00221949062001F073
:1004400035FA00221649072001F030FA0022FF2178
:10045000002001F0E9FA0022FF21012001F0E4FA76
:100460000022FF21022001F0DFFA0022FF210320F9
:1004700001F0DAFA0022FF21042001F0D5FA00226F
:10048000FF21052001F0D0FA0022FF21062001F013
:10049000CBFA0022FF21072001F0C6FA00BF80BD81
:1004A00000F00FF080B582B000AF0346FB71012170
:1004B000244800F097FC0321234800F095FE4021DA
:1004C000224800F079FB012000F0E0FF01212048E4
:1004D00000F088FC4FF0FF30FFF77CFF1D4801F073
:1004E00083F80121082001F0DDF80121102001F03E
:1004F000D9F80121802001F0D5F801214FF4807056
:1005000001F0D0F801214FF4007001F0CBF8FB7935
:10051000002B0DD04FF4402001F044FB4FF480300D
:1005200001F09EF80C4BDB6F0B4A43F00803D367D6
:10053000FFF762FF4FF0FF30FFF73AFF00BF0837C9
:10054000BD4680BD0043020002001E0080002A005C
:1005500000362C000026000000800C4080B500AF63
:1005600000227821012001F05FFA00227821022088
:1005700001F05AFA00227821032001F055FA0022F6
:100580007821042001F050FA00227821052001F0A2
:100590004BFA00227821062001F046FA0022782149
:1005A000072001F041FA00BF80BD000080B588B08F
:1005B00000AF78607B684FF6FE72934202D94FF627
:1005C000FF737B604FF0FF30FFF7F2FE0120FFF773
:1005D000D9FEFFF7C3FF0023BB613DE0BB699B0071
:1005E0007A6822FA03F303F00F037B611F4A7B69E9
:1005F00032F813307B820023FB6127E01C49BA6983
:100600001346DB009B1A5B00CA18FB691344CB330B
:100610001B78FB601649BA691346DB009B1A5B0026
:10062000CA18FB691344C4331B78BB607A8AFB6920
:1006300042FA03F303F00103002B04D00122F9680E
:10064000B86801F04FF8FB690133FB61FB69062BC9
:10065000D4DDBB690133BB61BB69032BBEDD002068
:10066000FFF790FE00BF2037BD4680BDDC250000AF
:10067000DC23000080B487B000AFF860B9607A6016
:10068000FB6803F10473DA00BB6813449B007B61D1
:100690007B697A681A6000BF1C37BD4680BC704712
:1006A00080B485B000AF786039607B6803F1047373
:1006B000DA003B6813449B00FB60FB681B6818462C
:1006C0001437BD4680BC704780B485B000AF7860F9
:1006D0007B68002B03D07B68B3F5004F00BF7B68BD
:1006E000B3FA83F3DBB2C3F11F03FB60FB68184668
:1006F0001437BD4680BC704780B400AF034BDB6C41
:100700001B0EDBB21846BD4680BC7047B081E00FBF
:1007100080B400AF034BDB6C1B0CDBB21846BD464C
:1007200080BC7047B081E00F80B582B000AFFFF7AA
:10073000EFFF03464A2B04D0792B02D0482B23D05D
:1007400024E0154B1B699BB21B029BB203F47C5344
:10075000FB80114B9B691B091B0103F0F0039AB24C
:10076000FB881343FB800C4BDB691B0903F00F0371
:100770009AB2FB881343FB80FB88B3F5017F01D35A
:10078000064B04E0064B02E0054B00E00023184650
:100790000837BD4680BD00BFD0FF0FE000366E01B8
:1007A0000048E80180B584B000AF78600123FB60A9
:1007B000FFF7BAFF02467B68934204D80023FB6030
:1007C0000023BB600BE0FFF7AFFF03465B007A68D6
:1007D0009A4202D80123BB6001E00223BB60FA68A1
:1007E0001E210848FFF746FF064B5B6823F4807222
:1007F000BB681B02034913434B6000BF1037BD4663
:1008000080BD00BF00800C4080B582B000AF1E21CB
:100810000448FFF745FF78607B6818460837BD46F7
:1008200080BD00BF00800C4080B582B000AF214B7E
:100830005B6903F4E063B3F5007F1CD0B3F5007F80
:1008400005D8002B25D0B3F5807F1FD02AE0B3F563
:10085000C06F24D0B3F5E06F1ED0B3F5407F21D137
:10086000FFF74AFF0346122B02D9134B7B601CE0B3
:10087000124B7B6019E0FFF73FFF0346122B02D9B2
:100880000F4B7B6011E00F4B7B600EE00E4B7B60EB
:100890000BE00E4B7B6008E00D4B7B6005E00D4BE1
:1008A0007B6002E000237B6000BF7B68184608374E
:1008B000BD4680BD00800C40804F120040420F00BA
:1008C00040B56400C0CF6A00C0D8A700809FD500A3
:1008D000406F4001003FAB0180B582B000AF0D48D2
:1008E00000F0D4FB0346FB70FB78072B05D0092BE7
:1008F00007D1FFF795FC786006E0FFF795FF786079
:1009000002E000237B6000BF7B6818460837BD46C5
:1009100080BD00BF06000E0080B485B000AF7860D7
:100920003960204B5B6803F00703FB60FB68012B19
:1009300001D9042B02D10023FB7202E00123FB72D8
:1009400000BF7B68184A934207D9FB7A002B01D07D
:10095000052300E00423FB6016E07B68124A934203
:100960000BD87B68114A934207D9FB7A002B01D040
:10097000032300E00123FB6006E0FB7A002B01D09B
:10098000022300E00023FB60064B5B6823F00702B4
:100990000449FB6813434B6000BF1437BD4680BC5D
:1009A000704700BF00000C400048E8010024F4003C
:1009B00080B582B000AF0E4BDB6B002B14BF012360
:1009C0000023FB710A4B41F67132DA63FFF71EFC1C
:1009D000034600211846FFF79FFFFB79002B02D04A
:1009E000034B0022DA6300BF0837BD4680BD00BF5D
:1009F00000000C4080B584B000AF786039600C4BCB
:100A0000DB6B002B14BF01230023FB73084B41F663
:100A10007132DA6339687868FFF77EFFFB7B002B61
:100A200002D0034B0022DA6300BF1037BD4680BD01
:100A300000000C4090B585B000AF78600023BB602B
:100A40007B68344A934203D0334A934200D000E09B
:100A500000BF786800F01AFB0346FB607B682D4AF4
:100A6000934203D02C4A934206D00CE02B4B9B6A56
:100A700003F00303FB6006E0284B9B6A9B0803F02E
:100A80000303FB6000BFFB68032B39D801A252F8B7
:100A900023F000BFCB0A0000A50A0000AD0A000049
:100AA000B50A0000FFF754FCB8602DE0FFF760FCCA
:100AB000B86029E0FFF790FB0446FFF7A5FE034668
:100AC000013324FA03F3BB601EE00023BB607B68A4
:100AD000104A934203D07B680F4A934213D10F4BC5
:100AE0009A6A7B680B498B4201D1102300E01423E2
:100AF00022FA03F3002B06D0FFF732FCB86002E0C5
:100B00000023BB6000E000BFBB6818461437BD4639
:100B100090BD00BF02001E000300200000800C40BA
:100B200080B483B000AF7860094B5B6D03F00103C4
:100B3000002B07D100BF064B1A6D7B681340002BBA
:100B4000F9D100E000BF0C37BD4680BC704700BF44
:100B500000800C4080B582B000AF104800F096FADB
:100B60000346FB70FB78032B07D0092B09D0022B1F
:100B70000BD1FFF7FDFB78600AE0FFF7E9FB786037
:100B800006E0FFF74DFB786002E000237B6000BFCA
:100B90007B6818460837BD4680BD00BF0723260086
:100BA00080B400AF00BFBD4680BC704780B400AFCA
:100BB00000BFBD4680BC704790B585B000AF78607F
:100BC00039607B681B0903F00F03FB60FB68013B86
:100BD000082B00F2F48001A252F823F0010C00006F
:100BE000BF0D0000BF0D0000350C0000BF0D000060
:100BF000BF0D00005D0C0000A90C00006B0D000093
:100C00003B68002B02D03B68082B00BFFFF7D0FEEB
:100C10006D4B1B6823F4E0323B68013B9B036A4940
:100C200013430B60FFF7D8FAB8600021B868FFF7EC
:100C3000E1FEC5E03B68002B03D03B68B3F5007FC5
:100C400000BF3868FFF740FD38605F4B9B6823F0BA
:100C50000F025D493B6813438B60B1E03B68002B9A
:100C600003D03B68B3F5007F00BFFFF7A1FEFFF79D
:100C7000D7FA02463B68B2FBF3F31846FFF792FD42
:100C80003868FFF721FD38604F4B5B6823F00F0297
:100C90004D493B6813434B60FFF79EFAB860002153
:100CA000B868FFF7A7FE8BE07B68484A93421ED0E6
:100CB000464A934203D8464A934207D054E0454AF5
:100CC000934225D0444A93423ED04DE00420FFF7A2
:100CD00027FF3868FFF7F8FC38603B4B9B6E23F02A
:100CE000F0023B681B01384913438B663CE004204B
:100CF000FFF716FF3868FFF7E7FC3860324B9B6E52
:100D000023F470623B681B022F4913438B662BE070
:100D10003B680F2B02D93B68802B00BF0420FFF7F4
:100D2000FFFE3868FFF7D0FC3860274B9B6E23F43A
:100D300040541020FFF7C8FC02463B689B1A1B0377
:100D4000214A234393660FE00420FFF7E9FE386849
:100D5000FFF7BAFC38601C4B9B6E23F003021A4964
:100D60003B6813438B6600BF2AE07B681B4A9342B3
:100D700003D01B4A934210D020E04020FFF7D0FE62
:100D80003868FFF7A1FC38600F4B1B6F23F003029C
:100D90000D493B6813430B6710E04020FFF7C0FE8E
:100DA0003868FFF791FC3860074B1B6F23F0300267
:100DB0003B681B01044913430B6700BF00E000BF01
:100DC00000BF1437BD4690BD00800C408026160041
:100DD0008016120080002A0080062E0090071A005C
:100DE00090171C0080B586B000AF78600B46FB7092
:100DF00000233B617B681B0A03F00F03013B092BB7
:100E000045D801A252F823F0450E00004B0E000019
:100E1000310E00008F0E00008F0E0000510E0000FA
:100E20005B0E00008F0E00008F0E0000650E0000AC
:100E3000194B7B61194800F03DF803461846FFF74F
:100E4000B1FC12E0164B7B610FE0164B7B610CE0AE
:100E5000154B7B6101233B6107E0144B7B61102341
:100E60003B6102E0124B7B6100BF7B681B0B03F010
:100E70001F03FB603B69002B02D03869FFF750FE6F
:100E8000FB781A46F9687869FFF7F4FB00E000BFC9
:100E90001837BD4680BD00BF40800C4000430200B3
:100EA00008800C4044800C4058800C4060800C400E
:100EB00078800C4090B585B000AF78607B6803F413
:100EC0007813B3F5D01F00F0AB80B3F5D01F1AD85C
:100ED000B3F5602F00F0BF80B3F5602F08D8B3F5ED
:100EE000003F3CD0B3F5802F2DD0002B27D0BEE0A3
:100EF000B3F5901F3CD0B3F5B01F47D0B3F5801FBA
:100F000000F0AD80B3E0B3F5181F00F0AC80B3F58E
:100F1000181F0AD8B3F5F01F25D0B3F5001F7AD0FB
:100F2000B3F5E01F00F08980A1E0B3F5301F4ED08B
:100F3000B3F5381F62D0B3F5281F35D097E0FFF71F
:100F40006FF9F86096E0FFF76BF9F8604C4B9B681F
:100F500003F00F03FA6822FA03F3FB608AE0FFF75D
:100F60003BF9F86086E04748FFF764FDF86081E0F0
:100F70004448FFF75FFDF860414B9B6E1B0903F08F
:100F80000F03FA6822FA03F3FB6073E03D48FFF7B2
:100F900051FDF8603A4B9B6E1B0A03F00F03FA6891
:100FA00022FA03F3FB6065E03648FFF743FDF86083
:100FB000334B9B6E1B0B03F003041020FFF784FBE5
:100FC00003462344FA6822FA03F3FB6052E02D48FB
:100FD000FFF730FDF8602A4B9B6E1B0B03F00303F9
:100FE000FA6822FA03F3FB60254BDB6F03F007037B
:100FF0000133FA68B2FBF3F3FB603BE02148FFF7F3
:1010000019FDF8601E4B9B6E03F00303FA6822FA89
:1010100003F3FB602EE01C48FFF70CFDF86029E0AD
:101020001948FFF707FDF860154B1B6F03F003032A
:10103000FA6822FA03F3FB601CE01348FFF7FAFC9E
:10104000F8600F4B1B6F1B0903F00303FA6822FAC9
:1010500003F3FB600EE0FFF73FFCF8600AE0FFF7E8
:10106000E3FBF86006E0FFF775FDF86002E000239F
:10107000FB6000BFFB6818461437BD4690BD00BF3B
:1010800000800C4002001E000300200080B485B0E8
:1010900000AF78600123FB737B6803F00F03BB6034
:1010A000BB68013B062B00F2938001A252F823F0AB
:1010B000CD100000031100003F110000D11100000D
:1010C000D11100007B1100009D110000454BDB6A2F
:1010D00003F47053B3F5805F09D0B3F5005F03D01C
:1010E000B3F5006F06D008E00223FB7308E003238A
:1010F000FB7305E00423FB7302E00523FB7300BFD1
:1011000069E0384B9B6A03F00303022B06D0032BE4
:1011100007D0012B08D10323FB730FE00223FB73DD
:101120000CE00623FB7309E02E4B9B6A03F480332B
:10113000002B02D00A23FB7300E000BF4BE0294BD9
:101140009B6A03F00C03082B06D00C2B07D0042B52
:1011500008D10323FB730FE00223FB730CE006238B
:10116000FB7309E01F4B9B6A03F48013002B02D032
:101170000A23FB7300E000BF2DE01A4B1B6803F04D
:101180008053002B03D0B3F1805F03D023E007230B
:10119000FB7302E00923FB7300BF1CE0114BDB6A09
:1011A00003F46033B3F5803F08D0B3F5003F08D0B7
:1011B000B3F5004F08D10923FB7308E00223FB734A
:1011C00005E00323FB7302E00123FB7300BF02E091
:1011D0000023FB7300BFFB7B18461437BD4680BC61
:1011E000704700BF00800C4080B588B000AF7860C9
:1011F0000B46FB700323FB610323FB7600233B615B
:101200007B6803F00F03FB60FB68013B062B00F2D9
:101210002C8101A252F823F03512000013130000B4
:10122000131300006B1400006B140000D9130000AE
:1012300003140000FB78023B082B00F2188101A286
:1012400052F823F069120000731200007D120000B2
:10125000BF1200006F1400006F1400006F14000034
:101260006F1400006F1400000423FB610023FB7661
:1012700031E00323FB610123FB762CE00223FB61B9
:101280000223FB76FFF750FA034601331846FFF7B7
:1012900089FAFFF745F80246784B9A4206D9784B0F
:1012A0001B68774A43F06003136014E0744B1B68BB
:1012B00023F06003724A43F0200313600BE0012324
:1012C000FB610323FB76FFF72FFA03460133184631
:1012D000FFF768FA00BFFB7E01220121184600F0EB
:1012E000F3F8FFF765FBFFF75BFC654AFB695362A8
:1012F0006448FFF7DFFD03461846FFF753FAFEF791
:101300006BFFB8600021B868FFF774FBFFF74EFC75
:10131000B0E0FB78013B092B00F2AB8001A252F850
:1013200023F000BF4D1300005313000063130000AF
:101330007314000073140000731300007314000092
:1013400073140000731400008F13000000237B61EE
:1013500022E001220121002000F0B6F802237B6187
:101360001AE001220121012000F0AEF801237B6187
:1013700012E0FEF731FFB860B868FFF713FA0122F8
:1013800004214148FFF776F903237B6104E0002341
:101390007B6101233B6100BFFB68022B0DD1384B01
:1013A0009B6A23F4803323F003037A691A433B6971
:1013B0001B04334913438B625CE0314B9B6A23F47B
:1013C000801323F00C037A6992001A433B691B05D2
:1013D0002B4913438B624DE0FB78072B02D0092B7E
:1013E00007D047E0264B1B68254A23F08053136043
:1013F00006E0234B1B68224A43F08053136000BF72
:1014000038E0FB78032B14D0092B22D0022B00D01C
:1014100030E001220121002000F056F8184B402254
:101420005A6200BF164BDB6A03F48033002BF9D0FD
:101430001AE001220121012000F046F8104B602241
:101440005A6200BF0E4BDB6A03F40033002BF9D065
:101450000AE00B4B20225A6200BF094BDB6A03F4FF
:101460000043002BF9D000BF04E000BF02E000BF42
:1014700000E000BF2037BD4680BD00BF0048E80146
:1014800000800C400043020040800C4080B483B0D8
:1014900000AF78600B4B9B6D03F00803002B0CD161
:1014A0007B6803F007037B60064BDB6F23F00702CA
:1014B00004497B681343CB6700E000BF0C37BD468F
:1014C00080BC704700800C4080B586B000AF0346FA
:1014D000FB710B46BB7113467B71FB79042B48D81B
:1014E00001A252F823F000BF3515000027150000B7
:1014F0000B150000FD1400001915000001233B61CD
:101500000223FB6001237B611DE004233B61082370
:10151000FB6003237B6116E010233B612023FB600B
:1015200005237B610FE040233B618023FB600723A1
:101530007B6108E04FF480733B614FF40073FB6004
:1015400009237B6100BFBB79002B0ED00B4A3B699E
:1015500013627B79002B0DD000BF79690848FFF733
:101560009FF80346002BF8D004E0044AFB6813629E
:1015700000E000BF1837BD4680BD00BF00800C40B2
:101580002C800C4080B483B000AF0346FB71FB7924
:10159000002B06D0084B1B68074A43F00103136079
:1015A00005E0054B1B68044A23F00103136000BFEC
:1015B0000C37BD4680BC704700A0084080B487B09F
:1015C00000AFF860B9607A60FB6803F10473DA0079
:1015D000BB6813449B007B617B697A681A6000BF1B
:1015E0001C37BD4680BC704780B584B000AF7860C2
:1015F0001A4B5B68FB600020FFF7C4FFFB6823F415
:10160000830323F01F03FB607B685B68FA68134366
:10161000FB607B681B7A1A46FB681343FB607B68A0
:101620005B7A1A46FB681343FB607B68DB68FA68E9
:101630001343FB607B681B8A1A46FB681343FB60FD
:10164000064AFB6853607B681B78002B02D00120A0
:10165000FFF798FF00BF1037BD4680BD00A00840CF
:1016600080B485B000AF78600D4B5B68FB60FB68B1
:1016700023F48033FB607B68002B08D0B3F5803FF8
:1016800000D005E0FB6843F48033FB6000E000BF5E
:10169000034AFB68536000BF1437BD4680BC7047E7
:1016A00000A0084080B483B000AF03460A46FB8028
:1016B00013467B717B79002B06D0094B9A68FB8817
:1016C000074913438B6006E0054B9A68FB88DB43B0
:1016D000034913408B6000BF0C37BD4680BC704788
:1016E00000A0084080B584B000AFF860B960134630
:1016F000FB71FB68072B00F2B38001A252F823F0C4
:101700002117000049170000711700009917000009
:10171000C1170000E9170000111800003918000077
:10172000BB681F2B06DCBB68FA7919464F48FFF7E8
:1017300045FF96E0BB68203BBB60BB68FA79194661
:101740004B48FFF73BFF8CE0BB681F2B06DCBB68F8
:10175000FA7919464748FFF731FF82E0BB68203B22
:10176000BB60BB68FA7919464348FFF727FF78E06A
:10177000BB681F2B06DCBB68FA7919463F48FFF7A8
:101780001DFF6EE0BB68203BBB60BB68FA79194661
:101790003B48FFF713FF64E0BB681F2B06DCBB6808
:1017A000FA7919463748FFF709FF5AE0BB68203B32
:1017B000BB60BB68FA7919463348FFF7FFFE50E07B
:1017C000BB681F2B06DCBB68FA7919462F48FFF768
:1017D000F5FE46E0BB68203BBB60BB68FA79194662
:1017E0002B48FFF7EBFE3CE0BB681F2B06DCBB6819
:1017F000FA7919462748FFF7E1FE32E0BB68203B43
:10180000BB60BB68FA7919462348FFF7D7FE28E08A
:10181000BB681F2B06DCBB68FA7919461F48FFF727
:10182000CDFE1EE0BB68203BBB60BB68FA79194661
:101830001B48FFF7C3FE14E0BB681F2B06DCBB6828
:10184000FA7919461748FFF7B9FE0AE0BB68203B52
:10185000BB60BB68FA7919461348FFF7AFFE00E09A
:1018600000BF00BF1037BD4680BD00BF40A008408C
:1018700050A0084044A0084054A0084048A0084098
:1018800058A008404CA008405CA00840CCA00840EC
:10189000B4A00840D0A00840B8A00840D4A0084098
:1018A000BCA00840D8A00840C0A0084080B487B0C1
:1018B00000AFF860B9607A60FB68072B00F2AC807B
:1018C00001A252F823F000BFE91800000D19000032
:1018D000311900005519000079190000A119000004
:1018E000C9190000F11900004E4B1B6C7B61BB68ED
:1018F000DB437A6913407B61BA687B6813407A697D
:1019000013437B61474A7B69136486E0454B5B6CFC
:101910007B61BB68DB437A6913407B61BA687B6893
:1019200013407A6913437B613E4A7B69536474E0D8
:101930003C4B9B6C7B61BB68DB437A6913407B61EA
:10194000BA687B6813407A6913437B61354A7B69C7
:10195000936462E0334BDB6C7B61BB68DB437A6989
:1019600013407B61BA687B6813407A6913437B61DB
:101970002C4A7B69D36450E02A4BD3F8CC307B618E
:10198000BB68DB437A6913407B61BA687B681340AC
:101990007A6913437B61234A7B69C2F8CC303CE00F
:1019A000204BD3F8D0307B61BB68DB437A691340AE
:1019B0007B61BA687B6813407A6913437B61194A7B
:1019C0007B69C2F8D03028E0164BD3F8D4307B6165
:1019D000BB68DB437A6913407B61BA687B6813405C
:1019E0007A6913437B610F4A7B69C2F8D43014E0F3
:1019F0000C4BD3F8D8307B61BB68DB437A6913406A
:101A00007B61BA687B6813407A6913437B61054A3E
:101A10007B69C2F8D83000E000BF00BF1C37BD466C
:101A200080BC704700A0084080B487B000AFF86069
:101A3000B9607A60FB68072B00F2AC8001A252F813
:101A400023F000BF651A0000891A0000AD1A0000DB
:101A5000D11A0000F51A00001D1B0000451B0000F4
:101A60006D1B00004E4B1B6D7B61BB68DB437A69CD
:101A700013407B61BA687B6813407A6913437B61CA
:101A8000474A7B69136586E0454B5B6D7B61BB68AC
:101A9000DB437A6913407B61BA687B6813407A69DB
:101AA00013437B613E4A7B69536574E03C4B9B6DFD
:101AB0007B61BB68DB437A6913407B61BA687B68F2
:101AC00013407A6913437B61354A7B69936562E011
:101AD000334BDB6D7B61BB68DB437A6913407B6111
:101AE000BA687B6813407A6913437B612C4A7B692F
:101AF000D36550E02A4BD3F8B4307B61BB68DB433D
:101B00007A6913407B61BA687B6813407A69134332
:101B10007B61234A7B69C2F8B4303CE0204BD3F8A8
:101B2000B8307B61BB68DB437A6913407B61BA687C
:101B30007B6813407A6913437B61194A7B69C2F859
:101B4000B83028E0164BD3F8BC307B61BB68DB4370
:101B50007A6913407B61BA687B6813407A691343E2
:101B60007B610F4A7B69C2F8BC3014E00C4BD3F8A0
:101B7000C0307B61BB68DB437A6913407B61BA6824
:101B80007B6813407A6913437B61054A7B69C2F81D
:101B9000C03000E000BF00BF1C37BD4680BC7047AE
:101BA00000A0084080B483B000AF7860064B5B684B
:101BB00023F4E01204497B6813434B6000BF0C37E9
:101BC000BD4680BC704700BF00A0084080B485B00F
:101BD00000AF78601A4B5B69DBB29B00DBB203F0AD
:101BE0003C03FB73164B1B699B09DBB203F0030339
:101BF000DAB2FB7B1343FB737B68FA7B9A70104B62
:101C00001B69DBB203F03F03DAB27B685A700C4BFE
:101C10009B691B09DBB21B01FB73094BDB691B09C9
:101C2000DBB203F00F03DAB2FB7B1343FB737B6879
:101C3000FA7B1A7000BF1437BD4680BC704700BFE6
:101C4000D0FF0FE090B583B000AF002000F002FBA2
:101C500003460C46184600F0A5FA00237B6023E0FB
:101C600000F0C4FA02461C4B83FB02131344D91044
:101C7000D317C91A0B46DB005B1A5B00D31A3B6013
:101C800016493A6813465B0013440B441B78002B3B
:101C9000E6D112493A6813465B0013440B44012213
:101CA0001A707B6801337B607B68032BD8DD00F002
:101CB00017F90B4B00221A600A4B00221A60094BDD
:101CC0001B68184600F098F9074B00221A7000BFF5
:101CD0000C37BD4690BD00BF93244992600100209F
:101CE0005C01002058010020B401002080B582B0C2
:101CF00000AF2D4B1B78002B02D0012B31D04FE0D1
:101D00002A4B1B78002B14BF01230023DBB283F086
:101D10000103DBB203F00103DAB2244B1A70244B47
:101D20001868224B1978214B1B781A4600F0F2F8FC
:101D300000F0C2F81F4B19681F4B83FB0132CB1711
:101D4000D21A13465B0013445B00CA1A002A02D160
:101D5000012000F035F8174B1B680133154A13605A
:101D60001EE000237B6015E014497A6813465B008F
:101D700013440B44187811497A6813465B001344E6
:101D80000B441B781A460146786800F0C3F87B685C
:101D900001337B607B681B2BE6DD00F08DF800BF14
:101DA00000BF0837BD4680BDB4010020B50100204A
:101DB0005C010020B8010020ABAAAA2A6001002023
:101DC00090B583B000AF78601C4B18681B4B1A6845
:101DD0001B4913465B0013440B4401331C78174B1B
:101DE0001A68174913465B0013440B4402331B78EF
:101DF0001A46214600F08EF87B68002B0BDD0F4B56
:101E00001B681A2B03DC0D4B1B68013300E0002319
:101E10000A4A13600DE07B68002B0ADA074B1B6847
:101E2000002B03DD054B1B68013B00E01B23034A2D
:101E3000136000BF0C37BD4690BD00BF5C010020A1
:101E40006001002080B400AF034BDB6C1B0EDBB2E3
:101E50001846BD4680BC7047B081E00F80B582B0A7
:101E600000AF0E4B01221A64FFF7ECFF0346FB7133
:101E70003B1D1846FFF7AAFEFB790F2B0AD93B79C9
:101E8000022B07D9064B1B6823F05003044A43F08A
:101E90001003136000BF0837BD4680BD00000C4032
:101EA000C0800C4080B500AFFFF7D8FF0020FEF7E0
:101EB000F9FA00BF80BD000080B483B000AF0023FA
:101EC0007B6002E07B6801337B607B68034A93425E
:101ED000F8DD00BF0C37BD4680BC7047DF930400BF
:101EE00080B582B000AF0023FB710AE0FB79084A9D
:101EF000002122F81310064800F0BCF8FB790133EA
:101F0000FB71FB79062BF1D900BF0837BD4680BDB8
:101F1000BC01002090B58BB000AF78600B46FB7021
:101F20001346BB70324B07F114040FCB84E80F004B
:101F30007B685A4203F0030302F0030258BF534286
:101F40005B005B0007F12802134433F8143CFB608C
:101F50007B685A4203F0030302F0030258BF534266
:101F60005B0001335B0007F12802134433F8143C93
:101F70003B617B68002B00DA03339B107B621D4AB8
:101F80007B6A32F813301AB2FB68012101FA03F3BD
:101F900019B23B69012000FA03F31BB20B431BB2D9
:101FA000DB431BB213401BB299B2124A7B6A22F880
:101FB0001310104A7B6A32F813301AB2F978FB68B2
:101FC00001FA03F319B2B8783B6900FA03F31BB2C4
:101FD0000B431BB213431BB299B2064A7B6A22F829
:101FE0001310044800F046F800BF2C37BD4690BDE2
:101FF00014260000BC01002080B582B000AF7860DC
:102000007B681846FEF7D2FA00BF0837BD4680BD90
:1020100080B500AFFFF746FFFFF714FEFFF766FE3F
:10202000FCE7000080B483B000AF0346FB71FB798E
:10203000002B03D0054B01221A6602E0034B00225D
:102040001A6600BF0C37BD4680BC704700A0084030
:1020500080B483B000AF786000BF054B5A6E7B68D8
:102060001340002BF9D100BF0C37BD4680BC704730
:1020700000A0084080B586B000AF78604FF0FF3018
:10208000FFF7E6FF0120FFF7CDFF0023BB753CE023
:102090000023FB7533E0BA7DF97D21481346DB0050
:1020A0009B1A9B0003440B440E331B783B61BA7DA3
:1020B000F97D1B481346DB009B1A9B0003440B442D
:1020C0001B78FB60BB7D5B007A6813441B881A4653
:1020D000FB7D42FA03F303F00103002B06D0FB68FB
:1020E000396901221846FFF7FDFA05E0FB683969F6
:1020F00000221846FFF7F6FAFB7D0133FB75FB7DE6
:102100000D2BC8D9BB7D0133BB75BB7D062BBFD959
:102110000020FFF787FF00BF1837BD4680BD00BF16
:102120000C00002008B5074B044613B10021AFF3A3
:102130000080054B1868836A03B19847204600F079
:102140003FF900BF000000002426000070B5002504
:102150000C4E0D4CA41BA410A54209D100F032F97D
:1021600000250A4E0A4CA41BA410A54205D170BD3F
:1021700056F8253098470135EEE756F82530984750
:102180000135F2E734010020340100203401002041
:102190003801002003460244934200D1704703F8FF
:1021A000011BF9E738B50D4B05461C68A36B7BB9DD
:1021B000182000F07BF80A4A0A4BA063C0E900230C
:1021C000094B012283600B2383810023C0E9042390
:1021D0000022A36B1D615A6138BD00BFD0000020F2
:1021E0000E33CDAB34126DE6ECDE050038B5134B83
:1021F0001C68A36B7BB9182000F058F8104A114BEB
:10220000A063C0E90023104B012283600B2383816C
:102210000023C0E90423A16B0C480A694B695043B1
:102220000B4C04FB0300A2FB04230344541C43F1A6
:102230000005C1E9044525F0004038BDD00000206C
:102240000E33CDAB34126DE6ECDE05002DF45158A3
:102250002D7F954C1FB50B4B04460022694618682C
:1022600000F012F8002805DA4FF0FF324FF0FF338C
:10227000CDE90023DDE900010CB1C4E9000104B09F
:1022800010BD00BFD000002038B50023064C054625
:1022900008461146236000F07DF8431C02D12368F4
:1022A00003B12B6038BD00BFD8010020024B0146AE
:1022B000186800F003B800BFD000002070B5CD1C36
:1022C00025F0030508350C2D38BF0C25002D0646DA
:1022D00001DBA94203D90C233360002070BD00F05C
:1022E00057F8214A1468214691B9204C23681BB93C
:1022F000304600F03DF820602946304600F038F8BE
:10230000431C24D10C233046336000F042F8E4E74C
:102310000B685B1B18D40B2B0FD90B60CC18CD505E
:10232000304600F036F804F10B00231D20F00700C2
:10233000C31AD3D05A42E250D0E74B688C4216BF42
:10234000636013600C46EBE70C464968CCE7C41C9D
:1023500024F00304A04205D0211A304600F008F80A
:102360000130CFD02560DBE7CC010020D001002078
:1023700038B50023054C05460846236000F012F8E6
:10238000431C02D1236803B12B6038BDD801002063
:10239000704770475822024B4FF0FF301A60704769
:1023A000D8010020044A05491368002B08BF0B46DA
:1023B0001844106018467047D4010020E001002046
:1023C000FEE700BFF8B500BFF8BC08BC9E467047EA
:1023D000F8B500BFF8BC08BC9E4670470101050770
:1023E000070304020302040605060D0E0E0E0D0D72
:1023F0000D0D0E0E0E0E0D0D010105070703040253
:102400000302040605060F1010100F0F0F0F101017
:1024100010100F0F01010507070304020302040651
:1024200005061112121211111111121212121111AC
:102430000101050707030402030204060506131C35
:102440001C1C131313131C1C1C1C13130001050765
:10245000060203010302040604051D1E1E1E1D1DA7
:102460001D1D1E1E1E1E1D1D000105070602030167
:102470000302040604051F2020201F1F1F1F202009
:1024800020201F1F010105070703040203020406A1
:10249000050621222222212121212222222221215C
:1024A000070502010306042323232323232307050F
:1024B0000201030604242424242424240705020101
:1024C00003060425252525252525070502010306E4
:1024D0000426262626262626000107020627272769
:1024E00027270000000000000000131211100F0E3B
:1024F0000D0C000000002125242601010304040224
:1025000003020D0E0D0D0E0D0E0E0101030404024B
:1025100003020F100F0F100F10100101030404022B
:10252000030211121111121112120101030404020B
:102530000302131C13131C131C1C000102030401CF
:1025400003021D1E1D1D1E1D1E1E0001020304018F
:1025500003021F201F1F201F20200101030404026B
:102560000302212221212221222205070704040639
:1025700005060E0E0D0D0E0E0D0D050707040406C3
:10258000050610100F0F10100F0F050707040406A3
:102590000506121211111212111105070704040683
:1025A00005061C1C13131C1C131305070603040645
:1025B00004051E1E1D1D1E1E1D1D05070603040607
:1025C000040520201F1F20201F1F050707040406E5
:1025D0000506222221212222212100003F0006009F
:1025E0005B004F0066006D007D0007007F006F00FC
:1025F00077007C0039005E00790071004000000027
:1026000001000000030040000C000000000000007A
:10261000000000000400050007000B0009000D0089
:0C26200001000200D400002000000000B7
:08262C00F0DAFF7F010000005D
:10263400006CDC0200800000809FD50001010507CA
:10264400070304020302040605060D0E0E0E0D0D0B
:102654000D0D0E0E0E0E0D0D0101050707030402EC
:102664000302040605060F1010100F0F0F0F1010B1
:1026740010100F0F010105070703040203020406EB
:102684000506111212121111111112121212111146
:102694000101050707030402030204060506131CCF
:1026A4001C1C131313131C1C1C1C131300010507FF
:1026B400060203010302040604051D1E1E1E1D1D41
:1026C4001D1D1E1E1E1E1D1D000105070602030101
:1026D4000302040604051F2020201F1F1F1F2020A3
:1026E40020201F1F0101050707030402030204063B
:1026F40005062122222221212121222222222121F6
:10270400D4000020000000000000000000000000D1
:1027140000000000000000000000000000000000B5
:1027240000000000000000000000000000000000A5
:102734000000000000000000000000000000000095
:102744000000000000000000000000000000000085
:102754000000000000000000000000000000000075
:0C2764000000000001010000DD0000008A
:040000030000019167
:00000001FF
